{
  "_format": "hh-sol-artifact-1",
  "contractName": "CertificateStorage",
  "sourceName": "contracts/CertificateStorage.sol",
  "abi": [
    {
      "anonymous": false,
      "inputs": [
        {
          "indexed": true,
          "internalType": "address",
          "name": "user",
          "type": "address"
        },
        {
          "indexed": false,
          "internalType": "string",
          "name": "certificateNumber",
          "type": "string"
        },
        {
          "indexed": false,
          "internalType": "uint256",
          "name": "timestamp",
          "type": "uint256"
        }
      ],
      "name": "CertificateStored",
      "type": "event"
    },
    {
      "inputs": [
        {
          "internalType": "uint256",
          "name": "index",
          "type": "uint256"
        }
      ],
      "name": "getCertificate",
      "outputs": [
        {
          "internalType": "string",
          "name": "",
          "type": "string"
        },
        {
          "internalType": "uint256",
          "name": "",
          "type": "uint256"
        }
      ],
      "stateMutability": "view",
      "type": "function"
    },
    {
      "inputs": [],
      "name": "getCertificatesCount",
      "outputs": [
        {
          "internalType": "uint256",
          "name": "",
          "type": "uint256"
        }
      ],
      "stateMutability": "view",
      "type": "function"
    },
    {
      "inputs": [
        {
          "internalType": "string",
          "name": "certificateNumber",
          "type": "string"
        }
      ],
      "name": "storeCertificate",
      "outputs": [],
      "stateMutability": "nonpayable",
      "type": "function"
    }
  ],
  "bytecode": "0x608060405234801561001057600080fd5b50610a23806100206000396000f3fe608060405234801561001057600080fd5b50600436106100415760003560e01c806351640fee146100465780638fb03a0214610077578063aaf4004014610095575b600080fd5b610060600480360381019061005b91906103df565b6100b1565b60405161006e9291906104ab565b60405180910390f35b61007f610255565b60405161008c91906104db565b60405180910390f35b6100af60048036038101906100aa919061062b565b61029e565b005b606060008060003373ffffffffffffffffffffffffffffffffffffffff1673ffffffffffffffffffffffffffffffffffffffff168152602001908152602001600020805490508310610138576040517f08c379a000000000000000000000000000000000000000000000000000000000815260040161012f906106c0565b60405180910390fd5b60008060003373ffffffffffffffffffffffffffffffffffffffff1673ffffffffffffffffffffffffffffffffffffffff168152602001908152602001600020848154811061018a576101896106e0565b5b90600052602060002090600202016040518060400160405290816000820180546101b39061073e565b80601f01602080910402602001604051908101604052809291908181526020018280546101df9061073e565b801561022c5780601f106102015761010080835404028352916020019161022c565b820191906000526020600020905b81548152906001019060200180831161020f57829003601f168201915b505050505081526020016001820154815250509050806000015181602001519250925050915091565b60008060003373ffffffffffffffffffffffffffffffffffffffff1673ffffffffffffffffffffffffffffffffffffffff16815260200190815260200160002080549050905090565b600060405180604001604052808381526020014281525090506000803373ffffffffffffffffffffffffffffffffffffffff1673ffffffffffffffffffffffffffffffffffffffff1681526020019081526020016000208190806001815401808255809150506001900390600052602060002090600202016000909190919091506000820151816000019081610334919061091b565b506020820151816001015550503373ffffffffffffffffffffffffffffffffffffffff167f404866aacbeb78d978c258d4a5d76b289cf168fbb0dd409c5d7fb6fcdaa2ae4f83426040516103899291906104ab565b60405180910390a25050565b6000604051905090565b600080fd5b600080fd5b6000819050919050565b6103bc816103a9565b81146103c757600080fd5b50565b6000813590506103d9816103b3565b92915050565b6000602082840312156103f5576103f461039f565b5b6000610403848285016103ca565b91505092915050565b600081519050919050565b600082825260208201905092915050565b60005b8381101561044657808201518184015260208101905061042b565b60008484015250505050565b6000601f19601f8301169050919050565b600061046e8261040c565b6104788185610417565b9350610488818560208601610428565b61049181610452565b840191505092915050565b6104a5816103a9565b82525050565b600060408201905081810360008301526104c58185610463565b90506104d4602083018461049c565b9392505050565b60006020820190506104f0600083018461049c565b92915050565b600080fd5b600080fd5b7f4e487b7100000000000000000000000000000000000000000000000000000000600052604160045260246000fd5b61053882610452565b810181811067ffffffffffffffff8211171561055757610556610500565b5b80604052505050565b600061056a610395565b9050610576828261052f565b919050565b600067ffffffffffffffff82111561059657610595610500565b5b61059f82610452565b9050602081019050919050565b82818337600083830152505050565b60006105ce6105c98461057b565b610560565b9050828152602081018484840111156105ea576105e96104fb565b5b6105f58482856105ac565b509392505050565b600082601f830112610612576106116104f6565b5b81356106228482602086016105bb565b91505092915050565b6000602082840312156106415761064061039f565b5b600082013567ffffffffffffffff81111561065f5761065e6103a4565b5b61066b848285016105fd565b91505092915050565b7f436572746966696361746520646f6573206e6f74206578697374000000000000600082015250565b60006106aa601a83610417565b91506106b582610674565b602082019050919050565b600060208201905081810360008301526106d98161069d565b9050919050565b7f4e487b7100000000000000000000000000000000000000000000000000000000600052603260045260246000fd5b7f4e487b7100000000000000000000000000000000000000000000000000000000600052602260045260246000fd5b6000600282049050600182168061075657607f821691505b6020821081036107695761076861070f565b5b50919050565b60008190508160005260206000209050919050565b60006020601f8301049050919050565b600082821b905092915050565b6000600883026107d17fffffffffffffffffffffffffffffffffffffffffffffffffffffffffffffffff82610794565b6107db8683610794565b95508019841693508086168417925050509392505050565b6000819050919050565b600061081861081361080e846103a9565b6107f3565b6103a9565b9050919050565b6000819050919050565b610832836107fd565b61084661083e8261081f565b8484546107a1565b825550505050565b600090565b61085b61084e565b610866818484610829565b505050565b5b8181101561088a5761087f600082610853565b60018101905061086c565b5050565b601f8211156108cf576108a08161076f565b6108a984610784565b810160208510156108b8578190505b6108cc6108c485610784565b83018261086b565b50505b505050565b600082821c905092915050565b60006108f2600019846008026108d4565b1980831691505092915050565b600061090b83836108e1565b9150826002028217905092915050565b6109248261040c565b67ffffffffffffffff81111561093d5761093c610500565b5b610947825461073e565b61095282828561088e565b600060209050601f8311600181146109855760008415610973578287015190505b61097d85826108ff565b8655506109e5565b601f1984166109938661076f565b60005b828110156109bb57848901518255600182019150602085019450602081019050610996565b868310156109d857848901516109d4601f8916826108e1565b8355505b6001600288020188555050505b50505050505056fea2646970667358221220bc5aeffc96e95f9c603583aa37120ea74e2271e501eda5825786a172b6ef764164736f6c63430008130033",
  "linkReferences": {},
  "deployedLinkReferences": {}
}