{
  "_format": "hh-sol-artifact-1",
  "contractName": "chai",
  "sourceName": "contracts/chai.sol",
  "abi": [
    {
      "inputs": [],
      "stateMutability": "nonpayable",
      "type": "constructor"
    },
    {
      "inputs": [
        {
          "internalType": "string",
          "name": "sertifikat",
          "type": "string"
        },
        {
          "internalType": "string",
          "name": "message",
          "type": "string"
        }
      ],
      "name": "buyChai",
      "outputs": [],
      "stateMutability": "payable",
      "type": "function"
    },
    {
      "inputs": [],
      "name": "getMemos",
      "outputs": [
        {
          "components": [
            {
              "internalType": "string",
              "name": "sertifikat",
              "type": "string"
            },
            {
              "internalType": "string",
              "name": "message",
              "type": "string"
            },
            {
              "internalType": "address",
              "name": "from",
              "type": "address"
            }
          ],
          "internalType": "struct chai.Memo[]",
          "name": "",
          "type": "tuple[]"
        }
      ],
      "stateMutability": "view",
      "type": "function"
    }
  ],
  "bytecode": "0x608060405234801561001057600080fd5b5033600160006101000a81548173ffffffffffffffffffffffffffffffffffffffff021916908373ffffffffffffffffffffffffffffffffffffffff160217905550610b1f806100616000396000f3fe6080604052600436106100295760003560e01c80636a13d8591461002e578063865c51721461004a575b600080fd5b610048600480360381019061004391906104c8565b610075565b005b34801561005657600080fd5b5061005f610280565b60405161006c9190610733565b60405180910390f35b600034116100b8576040517f08c379a00000000000000000000000000000000000000000000000000000000081526004016100af906107b2565b60405180910390fd5b600160009054906101000a900473ffffffffffffffffffffffffffffffffffffffff1673ffffffffffffffffffffffffffffffffffffffff166108fc349081150290604051600060405180830381858888f19350505050158015610120573d6000803e3d6000fd5b506000604051806060016040528086868080601f016020809104026020016040519081016040528093929190818152602001838380828437600081840152601f19601f82011690508083019250505050505050815260200184848080601f016020809104026020016040519081016040528093929190818152602001838380828437600081840152601f19601f8201169050808301925050505050505081526020013373ffffffffffffffffffffffffffffffffffffffff168152509080600181540180825580915050600190039060005260206000209060030201600090919091909150600082015181600001908161021a9190610a17565b5060208201518160010190816102309190610a17565b5060408201518160020160006101000a81548173ffffffffffffffffffffffffffffffffffffffff021916908373ffffffffffffffffffffffffffffffffffffffff160217905550505050505050565b60606000805480602002602001604051908101604052809291908181526020016000905b8282101561045057838290600052602060002090600302016040518060600160405290816000820180546102d790610830565b80601f016020809104026020016040519081016040528092919081815260200182805461030390610830565b80156103505780601f1061032557610100808354040283529160200191610350565b820191906000526020600020905b81548152906001019060200180831161033357829003601f168201915b5050505050815260200160018201805461036990610830565b80601f016020809104026020016040519081016040528092919081815260200182805461039590610830565b80156103e25780601f106103b7576101008083540402835291602001916103e2565b820191906000526020600020905b8154815290600101906020018083116103c557829003601f168201915b505050505081526020016002820160009054906101000a900473ffffffffffffffffffffffffffffffffffffffff1673ffffffffffffffffffffffffffffffffffffffff1673ffffffffffffffffffffffffffffffffffffffff1681525050815260200190600101906102a4565b50505050905090565b600080fd5b600080fd5b600080fd5b600080fd5b600080fd5b60008083601f84011261048857610487610463565b5b8235905067ffffffffffffffff8111156104a5576104a4610468565b5b6020830191508360018202830111156104c1576104c061046d565b5b9250929050565b600080600080604085870312156104e2576104e1610459565b5b600085013567ffffffffffffffff811115610500576104ff61045e565b5b61050c87828801610472565b9450945050602085013567ffffffffffffffff81111561052f5761052e61045e565b5b61053b87828801610472565b925092505092959194509250565b600081519050919050565b600082825260208201905092915050565b6000819050602082019050919050565b600081519050919050565b600082825260208201905092915050565b60005b838110156105af578082015181840152602081019050610594565b60008484015250505050565b6000601f19601f8301169050919050565b60006105d782610575565b6105e18185610580565b93506105f1818560208601610591565b6105fa816105bb565b840191505092915050565b600073ffffffffffffffffffffffffffffffffffffffff82169050919050565b600061063082610605565b9050919050565b61064081610625565b82525050565b6000606083016000830151848203600086015261066382826105cc565b9150506020830151848203602086015261067d82826105cc565b91505060408301516106926040860182610637565b508091505092915050565b60006106a98383610646565b905092915050565b6000602082019050919050565b60006106c982610549565b6106d38185610554565b9350836020820285016106e585610565565b8060005b858110156107215784840389528151610702858261069d565b945061070d836106b1565b925060208a019950506001810190506106e9565b50829750879550505050505092915050565b6000602082019050818103600083015261074d81846106be565b905092915050565b600082825260208201905092915050565b7f506c6561736520706179206d6f72652065746865720000000000000000000000600082015250565b600061079c601583610755565b91506107a782610766565b602082019050919050565b600060208201905081810360008301526107cb8161078f565b9050919050565b7f4e487b7100000000000000000000000000000000000000000000000000000000600052604160045260246000fd5b7f4e487b7100000000000000000000000000000000000000000000000000000000600052602260045260246000fd5b6000600282049050600182168061084857607f821691505b60208210810361085b5761085a610801565b5b50919050565b60008190508160005260206000209050919050565b60006020601f8301049050919050565b600082821b905092915050565b6000600883026108c37fffffffffffffffffffffffffffffffffffffffffffffffffffffffffffffffff82610886565b6108cd8683610886565b95508019841693508086168417925050509392505050565b6000819050919050565b6000819050919050565b600061091461090f61090a846108e5565b6108ef565b6108e5565b9050919050565b6000819050919050565b61092e836108f9565b61094261093a8261091b565b848454610893565b825550505050565b600090565b61095761094a565b610962818484610925565b505050565b5b818110156109865761097b60008261094f565b600181019050610968565b5050565b601f8211156109cb5761099c81610861565b6109a584610876565b810160208510156109b4578190505b6109c86109c085610876565b830182610967565b50505b505050565b600082821c905092915050565b60006109ee600019846008026109d0565b1980831691505092915050565b6000610a0783836109dd565b9150826002028217905092915050565b610a2082610575565b67ffffffffffffffff811115610a3957610a386107d2565b5b610a438254610830565b610a4e82828561098a565b600060209050601f831160018114610a815760008415610a6f578287015190505b610a7985826109fb565b865550610ae1565b601f198416610a8f86610861565b60005b82811015610ab757848901518255600182019150602085019450602081019050610a92565b86831015610ad45784890151610ad0601f8916826109dd565b8355505b6001600288020188555050505b50505050505056fea26469706673582212209504e3e6c31be55dd1cd274f2d8502c5b69b0f02ca0eb40fd5b6b3a6c4cc94cb64736f6c63430008130033",
  "linkReferences": {},
  "deployedLinkReferences": {}
}